:020000040000FA
:10000000372883178001840AFF3E031D0228322807
:10001000031783168C010C1483120C0803178D0A26
:100020003228A301A200FF30A207031CA307031C70
:1000300032280330A100E3301F201328A101F43E31
:10004000A000A109FE30031C2828A00703182528BA
:10005000A0076400A10F2528000020182F282018D1
:100060003128080083130313831264000800C03092
:100070009F00831670308F00FF308500F7308600B8
:10008000FF308700DF308800831288128316031741
:10009000880189018312031328309400831691018B
:1000A0000430930083128A150A169729AE30D700C0
:1000B0008A110A127B212030D7008A110A127B2173
:1000C000D7018A110A127B214030D7008A110A1207
:1000D0007B21A030D7008A110A127B21C030D700C3
:1000E0008A110A127B21DA30D7008A110A127B2189
:1000F0001230D7008A110A127B21A430D7008A114E
:100100000A127B21A630D7008A110A127B21813086
:10011000D7008A110A127B21FF30D7008A110A12F8
:100120007B21DB30D7008A110A127B212030D700D7
:100130008A110A127B218D30D7008A110A127B2185
:100140001430D7008A110A127B210130A300F43049
:100150008A011220AF30D7008A110A127B210800D1
:100160002E30D7008A110A127B2108002F30D700C9
:100170008A110A127B210800A630D7008A110A12C0
:100180007B210800A730D7008A110A127B210800C2
:1001900083161115831264008A110A128C19D22851
:1001A0008A01CB288C1108002630D7008A110A1248
:1001B0007B21D7018A110A127B210730D7008A11CF
:1001C0000A127B216708D7008A110A127B210730A7
:1001D000D7008A110A127B21D7018A110A127B21CA
:1001E000FF30D7008A110A127B2108002730D70080
:1001F0008A110A127B21D7018A110A127B2107304A
:10020000D7008A110A127B216708D7008A110A12C7
:100210007B210730D7008A110A127B21D7018A116E
:100220000A127B21FF30D7008A110A127B210800B5
:100230002730D7008A110A127B21D7018A110A12AE
:100240007B21D7018A110A127B216708D7008A1106
:100250000A127B210730D7008A110A127B21D701AD
:100260008A110A127B21FF30D7008A110A127B21E2
:100270000800E6016400403066028A110A12031881
:100280005329D330D7008A110A127B216608D70080
:100290008A110A127B2165088A011120E60A8A1157
:1002A0000A12031D3A2908003F30E600D330D70078
:1002B0008A110A127B216608D7008A110A127B2153
:1002C00065088A0111200130E6028A110A1203181A
:1002D00056290800AE30D7008A110A127B21C83097
:1002E0008A011120AF30D7008A110A127B21C83051
:1002F0008A0111200800D9018316111483126400A9
:100300008A110A128C1986298A017F298C115008BA
:10031000930064008A110A128C1990298A01892994
:100320008C115908930064008A110A128C199A29B9
:100330008A0193298C115708930064008A110A12CC
:100340008C19A4298A019D298C1108004030D900FC
:1003500083161114831264008A110A128C19B229AF
:100360008A01AB298C115008930064008A110A128B
:100370008C19BC298A01B5298C1159089300640095
:100380008A110A128C19C6298A01BF298C116108A9
:10039000930064008A110A128C19D0298A01C92994
:1003A0008C1108002130D7008A017B216A08D70010
:1003B0008A017B216B08D7008A017B212230D7007C
:1003C0008A017B216C08D7008A017B216D08D70048
:1003D0008A017B2108002130D7008A017B21550842
:1003E000D7008A017B215408D7008A017B21223063
:1003F000D7008A017B216308D7008A017B2162082C
:10040000D7008A017B210800EA017F30EB00EC0174
:10041000ED018A01D221DC01640080305C028A1186
:100420000A120318AE2A5C087F3C8A110A12031CC8
:10043000A72A8A110A122022E1008A110A12A72A89
:1004400002308A005C08273E03188A0A82000034C2
:1004500000340034003400340034003400340034FC
:1004600000340034003400340034003400340034EC
:1004700000340034003400340034003400340034DC
:1004800000340034003400340034003400340034CC
:1004900000340034003400340034003400340034BC
:1004A00000340034003400341E349E3480348034F0
:1004B0009E349E34803480349E349E348034803424
:1004C0009E349E34803480349E349E348034803414
:1004D0009E349E34803480349E349E348034803404
:1004E0009E349E34803480349E349E3480348034F4
:1004F0009E341E34003400340034003400340034A0
:10050000003400340034003400340034003400344B
:10051000003400340034003400340034003400343B
:10052000003400340034003400340034003400342B
:10053000003400340034003400340034003400341B
:1005400000340034003400340034003400348A01B4
:10055000A621DC0A8A110A12031D0C2AEA017F3047
:10056000EB000130EC000130ED008A01D221DC010A
:10057000640080305C028A110A1203185A2B5C084E
:100580007F3C8A110A12031C532B8A110A12CC22B7
:10059000E1008A110A12532B02308A005C08D33E14
:1005A00003188A0A82000034003400340034003416
:1005B000003400340034003400340034003400349B
:1005C000003400340034003400340034003400348B
:1005D000003400340034003400340034003400347B
:1005E000003400340034003400340034003400346B
:1005F000663466346634663400340034FC34FE34C9
:10060000FF34FF340F34073407348734873487349A
:100610008734073407340734073407348734873482
:1006200087348734873487348734873487348734F2
:100630000734073407340734073487348734873462
:100640008734073407340F34FF34FF34FE34FC346E
:100650000034003466346634663466340034003462
:1006600000340034003400340034003400340034EA
:1006700000340034003400340034003400340034DA
:1006800000340034003400340034003400340034CA
:1006900000340034003400340034003400340034BA
:1006A0000034003400348A01A621DC0A8A110A12BF
:1006B000031DB82AEA017F30EB000230EC00023063
:1006C000ED008A01D221DC01640080305C028A11D5
:1006D0000A120318062C5C087F3C8A110A12031CBC
:1006E000FF2B8A110A127823E1008A110A12FF2BCC
:1006F00003308A005C087F3E03188A0A82000034B7
:100700000034003400340034003400340034003449
:100710000034003400340034003400340034003439
:100720000034003400340034003400340034003429
:100730000034003400340034003400340034003419
:100740000034003400340034663466346634663471
:1007500000340034FF34FF34FF34FF3400340034FD
:100760000034FF34FF34FF34FF34003400340034ED
:10077000FE34FF34FF34FF34873407340734073442
:1007800007340734FF34FF34FF34FE3400340034C0
:100790000034FF34FF34FF34FF34003400340034BD
:1007A000FF34FF34FF34FF340034003466346634E1
:1007B00066346634003400340034003400340034CD
:1007C0000034003400340034003400340034003489
:1007D0000034003400340034003400340034003479
:1007E0000034003400340034003400340034003469
:1007F00000340034003400340034003400348A0102
:10080000A621DC0A8A110A12031D642BEA017F303B
:10081000EB000330EC000330ED008A01D221DC0153
:10082000640080305C028A110A120318B22C5C0842
:100830007F3C8A110A12031CAB2C8A110A12242451
:10084000E1008A110A12AB2C04308A005C082B3EAE
:1008500003188A0A82000034003400340034003463
:1008600000340034003400340034003400340034E8
:1008700000340034003400340034003400340034D8
:1008800000340034003400340034003400340034C8
:1008900000340034003400340034003400340034B8
:1008A000663466346634663400340034FF34FF3412
:1008B000FF34FF34003400340034FF34FF34FF349D
:1008C000FF343C343C34383430342134033407347E
:1008D0000F341F343E347C34F834F034E034C03408
:1008E00084340C341C343C343C34FF34FF34FF3447
:1008F000FF34003400340034C134C134C134C13455
:1009000000340034663466346634663400340034AF
:100910000034003400340034003400340034003437
:100920000034003400340034003400340034003427
:100930000034003400340034003400340034003417
:100940000034003400340034003400340034003407
:100950000034003400348A01A621DC0A8A110A120C
:10096000031D102CEA017F30EB000430EC00043052
:10097000ED008A01D221DC01640080305C028A1122
:100980000A1203185E2D5C087F3C8A110A12031CB0
:10099000572D8A110A12D024E1008A110A12572D0C
:1009A00004308A005C08D73E03188A0A82000034AB
:1009B0000034003400340034003400340034003497
:1009C0000034003400340034003400340034003487
:1009D0000034003400340034003400340034003477
:1009E0000034003400340034003400340034003467
:1009F00000340034003400346634663466346634BF
:100A000000340034FF34FF34FF34FF34003400344A
:100A10000034FF34FF34FF34FF340034003400343A
:100A20007F34FF34FF34FF34E034E034E034E0342A
:100A3000E034E134FF34FF34FF347F3400340034D9
:100A40000034FF34FF34FF34FF340034003400340A
:100A5000FF34FF34FF34FF3400340034663466342E
:100A6000663466340034003400340034003400341A
:100A700000340034003400340034003400340034D6
:100A800000340034003400340034003400340034C6
:100A900000340034003400340034003400340034B6
:100AA00000340034003400340034003400348A014F
:100AB000A621DC0A8A110A12031DBC2CEA017F3030
:100AC000EB000530EC000530ED008A01D221DC019D
:100AD000640080305C028A110A1203180A2E5C0836
:100AE0007F3C8A110A12031C032E8A110A127C25EC
:100AF000E1008A110A12032E05308A005C08833E49
:100B000003188A0A820000340034003400340034B0
:100B10000034003400340034003400340034003435
:100B20000034003400340034003400340034003425
:100B30000034003400340034003400340034003415
:100B40000034003400340034003400340034003405
:100B50006634663466346634003400343F347F349F
:100B6000FF34FF34F034E034E034E134E134E13494
:100B7000E134E034E034E034E034E034E134E134D2
:100B8000E134E134E134E134E134E134E134E134BD
:100B9000E034E034E034E034E034E134E134E134B2
:100BA000E134E034E034F034FF34FF347F343F3458
:100BB00000340034663466346634663400340034FD
:100BC0000034003400340034003400340034003485
:100BD0000034003400340034003400340034003475
:100BE0000034003400340034003400340034003465
:100BF0000034003400340034003400340034003455
:100C00000034003400348A01A621DC0A8A110A1259
:100C1000031D682DEA017F30EB000630EC00063042
:100C2000ED008A01D221DC01640080305C028A116F
:100C30000A120318B62E5C087F3C8A110A12031CA4
:100C4000AF2E8A110A122826E1008A110A12AF2E4D
:100C500006308A005C082F3E03188A0A820000349E
:100C600000340034003400340034003400340034E4
:100C700000340034003400340034003400340034D4
:100C800000340034003400340034003400340034C4
:100C900000340034003400340034003400340034B4
:100CA00000340034003400340034003400340034A4
:100CB00000340034003400347834793401340134A1
:100CC000793479340134013479347934013401349C
:100CD000793479340134013479347934013401348C
:100CE000793479340134013479347934013401347C
:100CF000793479340134013479347934013401346C
:100D00007934783400340034003400340034003452
:100D10000034003400340034003400340034003433
:100D20000034003400340034003400340034003423
:100D30000034003400340034003400340034003413
:100D40000034003400340034003400340034003403
:100D500000340034003400340034003400348A019C
:100D6000A621DC0A8A110A12031D142EEA017F3023
:100D7000EB000730EC000730ED008A01D221DC01E6
:100D8000640080305C028A110A120318622F5C082A
:100D90007F3C8A110A12031C5B2F8A110A12D42687
:100DA000E1008A110A125B2F06308A005C08DB3EE4
:100DB00003188A0A820000340034003400340034FE
:100DC0000034003400340034003400340034003483
:100DD0000034003400340034003400340034003473
:100DE0000034003400340034003400340034003463
:100DF0000034003400340034003400340034003453
:100E00007F3449344934413400347F3440344034F1
:100E1000403400347F3449344934413400343E3462
:100E20004134413422340034013401347F340134FC
:100E300000347F3409341934663400343E3441348C
:100E400041343E3400347F34023404347F3400347F
:100E5000413441347F34413400343E3441344134F0
:100E600022340034263449344934323400340034D6
:100E700000340034003400340034003400340034D2
:100E800000340034003400340034003400340034C2
:100E900000340034003400340034003400340034B2
:100EA00000340034003400340034003400340034A2
:100EB0000034003400348A01A621DC0A8A110A12A7
:100EC000031DC02E080064005208203C8A110A123B
:100ED000031DAF2F64008A110A12601C8B2F5C085F
:100EE000073C8A110A12031C8B2F8A110A127C27D5
:100EF000E1008A110A128B2F07308A005C08833EBA
:100F000003188A0A820000340034003400340034AC
:100F100000340034003464008A110A12E01CAC2F43
:100F20005C08073C8A110A12031CAC2F8A110A12B2
:100F30009D27E1008A110A12AC2F07308A005C0855
:100F4000A43E03188A0A82000034003400340034BE
:100F500000340034003400348A110A168C2B6400EB
:100F60005208213C8A110A12031DFB2F64008A11CA
:100F70000A12601CD72F5C08073C8A110A12031C56
:100F8000D72F8A110A12C827E1008A110A12D72F17
:100F900007308A005C08CF3E03188A0A82000034BA
:100FA0000034FE34FE34FE34003400340034640077
:100FB0008A110A12E01CF82F5C08073C8A110A12F9
:100FC000031CF82F8A110A12E927E1008A110A127C
:100FD000F82F07308A005C08F03E03188A0A820066
:100FE00000340034C334EF34C334003400340034EC
:100FF0008A110A168C2B640052082C3C8A150A129E
:10100000031D472864008A150A12601C23285C0807
:10101000073C8A150A12031C23288A150A12142079
:10102000E1008A150A12232808308A005C081B3E5A
:1010300003188A0A8200003400340034003400347B
:1010400000340034003464008A150A12E01C44287D
:101050005C08073C8A150A12031C44288A150A12E8
:101060003520E1008A150A12442808308A005C08FD
:101070003C3E03188A0A82008034F0347034003415
:1010800000340034003400348A110A168C2B6400BA
:1010900052082E3C8A150A12031D932864008A15F3
:1010A0000A12601C6F285C08073C8A150A12031C90
:1010B0006F288A150A126020E1008A150A126F282B
:1010C00008308A005C08673E03188A0A82000034F0
:1010D0000034003400340034003400340034640040
:1010E0008A150A12E01C90285C08073C8A150A122F
:1010F000031C90288A150A128120E1008A150A1221
:10110000902808308A005C08883E03188A0A82000A
:101110000034C034C03400340034003400340034AF
:101120008A110A168C2B64005208303C8A150A1268
:10113000031DDF2864008A150A12601CBB285C08A6
:10114000073C8A150A12031CBB288A150A12AC2018
:10115000E1008A150A12BB2808308A005C08B33EF9
:1011600003188A0A8200F834FC340E348634CE34F4
:10117000FC34F834003464008A150A12E01CDC28C0
:101180005C08073C8A150A12031CDC288A150A121F
:10119000CD20E1008A150A12DC2808308A005C089C
:1011A000D43E03188A0A82003F347F34E634C234C6
:1011B000E0347F343F3400348A110A168C2B6400EB
:1011C0005208313C8A150A12031D2B2964008A1526
:1011D0000A12601C07295C08073C8A150A12031CC6
:1011E00007298A150A12F820E1008A150A12072930
:1011F00008308A005C08FF3E03188A0A820008341F
:101200000C340E34FE34FE340034003400346400F8
:101210008A150A12E01C28295C08073C8A150A1264
:10122000031C28298A150A121921E1008A150A12BD
:10123000282909308A005C08203E03188A0A8200A7
:10124000C034C034C034FF34FF34C034C034003440
:101250008A110A168C2B64005208323C8A150A1235
:10126000031D772964008A150A12601C53295C0843
:10127000073C8A150A12031C53298A150A124421B5
:10128000E1008A150A12532909308A005C084B3E96
:1012900003188A0A820018341C340E348634CE3483
:1012A000FC347834003464008A150A12E01C742976
:1012B0005C08073C8A150A12031C74298A150A1255
:1012C0006521E1008A150A12742909308A005C0838
:1012D0006C3E03188A0A8200FC34FE34C734C334DF
:1012E000C134C034C03400348A110A168C2B640017
:1012F0005208333C8A150A12031DC32964008A155B
:101300000A12601C9F295C08073C8A150A12031CFC
:101310009F298A150A129021E1008A150A129F2935
:1013200009308A005C08973E03188A0A8200183444
:101330001C340E348634CE34FC34783400346400EB
:101340008A150A12E01CC0295C08073C8A150A129B
:10135000031CC0298A150A12B121E1008A150A125C
:10136000C02909308A005C08B83E03188A0A820046
:1013700030347034E034C134E3347F343E340034EC
:101380008A110A168C2B64005208343C8A150A1202
:10139000031D0F2A64008A150A12601CEB295C08E1
:1013A000073C8A150A12031CEB298A150A12DC2154
:1013B000E1008A150A12EB2909308A005C08E33E35
:1013C00003188A0A8200FE34FE348034803480346C
:1013D000FE34FE34003464008A150A12E01C0C2A24
:1013E0005C08073C8A150A12031C0C2A8A150A128B
:1013F000FD21E1008A150A120C2A0A308A005C08D5
:10140000043E03188A0A8200013401340134013495
:101410000134FF34FF3400348A110A168C2B640027
:101420005208353C8A150A12031D5B2A64008A158E
:101430000A12601C372A5C08073C8A150A12031C32
:10144000372A8A150A122822E1008A150A12372A39
:101450000A308A005C082F3E03188A0A8200FE3494
:10146000FE34863486348634063406340034640010
:101470008A150A12E01C582A5C08073C8A150A12D1
:10148000031C582A8A150A124922E1008A150A12F9
:10149000582A0A308A005C08503E03188A0A8200E3
:1014A00031347134E134C134E3347F343E340034B8
:1014B0008A110A168C2B64005208363C8A150A12CF
:1014C000031DA72A64008A150A12601C832A5C087F
:1014D000073C8A150A12031C832A8A150A127422F1
:1014E000E1008A150A12832A0A308A005C087B3ED2
:1014F00003188A0A8200F834FC348E3486348E3421
:101500009C341834003464008A150A12E01CA42AA2
:101510005C08073C8A150A12031CA42A8A150A12C1
:101520009522E1008A150A12A42A0A308A005C0872
:101530009C3E03188A0A82003F347F34E134C13470
:10154000E1347F343F3400348A110A168C2B640056
:101550005208373C8A150A12031DF32A64008A15C3
:101560000A12601CCF2A5C08073C8A150A12031C69
:10157000CF2A8A150A12C022E1008A150A12CF2A40
:101580000A308A005C08C73E03188A0A82000634C3
:10159000063406348634E634FE343E3400346400C7
:1015A0008A150A12E01CF02A5C08073C8A150A1208
:1015B000031CF02A8A150A12E122E1008A150A1298
:1015C000F02A0A308A005C08E83E03188A0A820082
:1015D000E034F8343E340F34033400340034003443
:1015E0008A110A168C2B64005208383C8A150A129C
:1015F000031D3F2B64008A150A12601C1B2B5C081C
:10160000073C8A150A12031C1B2B8A150A120C238D
:10161000E1008A150A121B2B0B308A005C08133E6E
:1016200003188A0A82007834FC34CE348634CE34EF
:10163000FC347834003464008A150A12E01C3C2B18
:101640005C08073C8A150A12031C3C2B8A150A12F7
:101650002D23E1008A150A123C2B0B308A005C080E
:10166000343E03188A0A82003E347F34E334C134A6
:10167000E3347F343E3400348A110A168C2B640024
:101680005208393C8A150A12031D8B2B64008A15F7
:101690000A12601C672B5C08073C8A150A12031C9F
:1016A000672B8A150A125823E1008A150A12672B44
:1016B0000B308A005C085F3E03188A0A8200F83407
:1016C000FC348E3486348E34FC34F83400346400B8
:1016D0008A150A12E01C882B5C08073C8A150A123E
:1016E000031C882B8A150A127923E1008A150A1235
:1016F000882B0B308A005C08803E03188A0A82001F
:1017000030347134E134C134E1347F343F34003457
:101710008A110A168C2B64005208403C8A150A1262
:10172000031DD72B64008A150A12601CB32B5C08BA
:10173000073C8A150A12031CB32B8A150A12A4232C
:10174000E1008A150A12B32B0B308A005C08AB3E0D
:1017500003188A0A8200E03430341834883498340C
:101760003034E034003464008A150A12E01CD42BB3
:101770005C08073C8A150A12031CD42B8A150A122E
:10178000C523E1008A150A12D42B0B308A005C08AD
:10179000CC3E03188A0A82003F346034C734883450
:1017A0008F34C8340F3400348A110A168C2B64002D
:1017B0005208413C8A150A12031D232C64008A1525
:1017C0000A12601CFF2B5C08073C8A150A12031CD6
:1017D000FF2B8A150A12F023E1008A150A12FF2B4B
:1017E0000B308A005C08F73E03188A0A8200F8343E
:1017F000FC348E3486348E34FC34F8340034640087
:101800008A150A12E01C202C5C08073C8A150A1273
:10181000031C202C8A150A121124E1008A150A12D1
:10182000202C0C308A005C08183E03188A0A8200BB
:10183000FF34FF34013401340134FF34FF34003409
:101840008A110A168C2B64005208423C8A150A122F
:10185000031D6F2C64008A150A12601C4B2C5C0857
:10186000073C8A150A12031C4B2C8A150A123C24C9
:10187000E1008A150A124B2C0C308A005C08433EAA
:1018800003188A0A8200FE34FE3486348634CE344D
:10189000FC347834003464008A150A12E01C6C2C85
:1018A0005C08073C8A150A12031C6C2C8A150A1264
:1018B0005D24E1008A150A126C2C0C308A005C0849
:1018C000643E03188A0A8200FF34FF34C134C134F5
:1018D000E3347F343E3400348A110A168C2B6400C2
:1018E0005208433C8A150A12031DBB2C64008A155A
:1018F0000A12601C972C5C08073C8A150A12031C0C
:10190000972C8A150A128824E1008A150A12972C4E
:101910000C308A005C088F3E03188A0A8200F83473
:10192000FC340E3406340E343C3438340034640055
:101930008A150A12E01CB82C5C08073C8A150A12AA
:10194000031CB82C8A150A12A924E1008A150A1270
:10195000B82C0C308A005C08B03E03188A0A82005A
:101960003F347F34E034C034E0347E343E340034DD
:101970008A110A168C2B64005208443C8A150A12FC
:10198000031D072D64008A150A12601CE32C5C08F5
:10199000073C8A150A12031CE32C8A150A12D42468
:1019A000E1008A150A12E32C0C308A005C08DB3E49
:1019B00003188A0A8200FE34FE34063406340E34DC
:1019C000FC34F834003464008A150A12E01C042D3B
:1019D0005C08073C8A150A12031C042D8A150A129A
:1019E000F524E1008A150A12042D0C308A005C08E7
:1019F000FC3E03188A0A8200FF34FF34C034C0342E
:101A0000E0347F343F3400348A110A168C2B640092
:101A10005208453C8A150A12031D532D64008A158D
:101A20000A12601C2F2D5C08073C8A150A12031C41
:101A30002F2D8A150A122025E1008A150A122F2D52
:101A40000D308A005C08273E03188A0A8200FE34A3
:101A5000FE3486348634863406340634003464001A
:101A60008A150A12E01C502D5C08073C8A150A12E0
:101A7000031C502D8A150A124125E1008A150A120D
:101A8000502D0D308A005C08483E03188A0A8200F7
:101A9000FF34FF34C134C134C134C034C0340034E5
:101AA0008A110A168C2B64005208463C8A150A12C9
:101AB000031D9F2D64008A150A12601C7B2D5C0893
:101AC000073C8A150A12031C7B2D8A150A126C2505
:101AD000E1008A150A127B2D0D308A005C08733EE6
:101AE00003188A0A8200FE34FE3486348634863433
:101AF00006340634003464008A150A12E01C9C2D5A
:101B00005C08073C8A150A12031C9C2D8A150A12D0
:101B10008D25E1008A150A129C2D0D308A005C0883
:101B2000943E03188A0A8200FF34FF3401340134E2
:101B300001340034003400348A110A168C2B6400FE
:101B40005208473C8A150A12031DEB2D64008A15C2
:101B50000A12601CC72D5C08073C8A150A12031C78
:101B6000C72D8A150A12B825E1008A150A12C72D59
:101B70000D308A005C08BF3E03188A0A8200F834E0
:101B8000FC340E3406340E347C3478340034640073
:101B90008A150A12E01CE82D5C08073C8A150A1217
:101BA000031CE82D8A150A12D925E1008A150A12AC
:101BB000E82D0D308A005C08E03E03188A0A820096
:101BC0003F347F34E034C634E6347E343E3400346F
:101BD0008A110A168C2B64005208483C8A150A1296
:101BE000031D372E64008A150A12601C132E5C0830
:101BF000073C8A150A12031C132E8A150A120426A2
:101C0000E1008A150A12132E0E308A005C080B3E82
:101C100003188A0A8200FE34FE3480348034803413
:101C2000FE34FE34003464008A150A12E01C342E9F
:101C30005C08073C8A150A12031C342E8A150A1206
:101C40002526E1008A150A12342E0E308A005C081F
:101C50002C3E03188A0A8200FF34FF340134013419
:101C60000134FF34FF3400348A110A168C2B6400CF
:101C70005208493C8A150A12031D832E64008A15F6
:101C80000A12601C5F2E5C08073C8A150A12031CAE
:101C90005F2E8A150A125026E1008A150A125F2E5D
:101CA0000E308A005C08573E03188A0A8200063408
:101CB00006340634FE34FE34063406340034640040
:101CC0008A150A12E01C802E5C08073C8A150A124D
:101CD000031C802E8A150A127126E1008A150A1249
:101CE000802E0E308A005C08783E03188A0A820033
:101CF000C034C034C034FF34FF34C034C034003486
:101D00008A110A168C2B640052084A3C8A150A1262
:101D1000031DCF2E64008A150A12601CAB2E5C08CE
:101D2000073C8A150A12031CAB2E8A150A129C2640
:101D3000E1008A150A12AB2E0E308A005C08A33E21
:101D400003188A0A8200003400340034003400345E
:101D5000FE34FE34003464008A150A12E01CCC2ED6
:101D60005C08073C8A150A12031CCC2E8A150A123D
:101D7000BD26E1008A150A12CC2E0E308A005C08BE
:101D8000C43E03188A0A82003C347C34E034C034F8
:101D9000E0347F343F3400348A110A168C2B6400FF
:101DA00052084B3C8A150A12031D1B2F64008A152A
:101DB0000A12601CF72E5C08073C8A150A12031CE5
:101DC000F72E8A150A12E826E1008A150A12F72E64
:101DD0000E308A005C08EF3E03188A0A8200FE3447
:101DE000FE348034E03478341E3406340034640029
:101DF0008A150A12E01C182F5C08073C8A150A1283
:101E0000031C182F8A150A120927E1008A150A12E5
:101E1000182F0F308A005C08103E03188A0A8200CF
:101E2000FF34FF34013407341E34F834E034003416
:101E30008A110A168C2B640052084C3C8A150A122F
:101E4000031D672F64008A150A12601C432F5C086B
:101E5000073C8A150A12031C432F8A150A123427DD
:101E6000E1008A150A12432F0F308A005C083B3EBE
:101E700003188A0A8200FE34FE3400340034003431
:101E800000340034003464008A150A12E01C642F08
:101E90005C08073C8A150A12031C642F8A150A1273
:101EA0005527E1008A150A12642F0F308A005C085A
:101EB0005C3E03188A0A8200FF34FF34C034C03409
:101EC000C034C034C03400348A110A168C2B64002C
:101ED00052084D3C8A150A12031DB32F64008A155F
:101EE0000A12601C8F2F5C08073C8A150A12031C1B
:101EF0008F2F8A150A128027E1008A150A128F2F68
:101F00000F308A005C08873E03188A0A8200FE347C
:101F1000FC343834F0343834FC34FE34003464009B
:101F20008A150A12E01CB02F5C08073C8A150A12B9
:101F3000031CB02F8A150A12A127E1008A150A1284
:101F4000B02F0F308A005C08A83E03188A0A82006E
:101F5000FF34FF34003401340034FF34FF340034E4
:101F60008A110A168C2B640052084E3C8A150A12FC
:101F7000031DFF2F64008A150A12601CDB2F5C080A
:101F8000073C8A150A12031CDB2F8A150A12CC277C
:101F9000E1008A150A12DB2F0F308A005C08D33E5D
:101FA00003188A0A8200FE34FE347834E034803428
:101FB000FE34FE34003464008A150A12E01CFC2F43
:101FC0005C08073C8A150A12031CFC2F8A150A12AA
:101FD000ED27E1008A150A12FC2F0F308A005C08F9
:101FE000F43E03188A0A8200FF34FF3400340134BF
:101FF0000734FF34FF3400348A110A168C2B640036
:1020000052084F3C8A110A16031D4B2864008A119E
:102010000A16601C27285C08073C8A110A16031C54
:1020200027288A110A161820E1008A110A16272883
:1020300010308A005C081F3E03188A0A8200F834B8
:10204000FC340E3406340E34FC34F83400346400AE
:102050008A110A16E01C48285C08073C8A110A16F7
:10206000031C48288A110A163920E1008A110A1631
:10207000482810308A005C08403E03188A0A820013
:102080003F347F34E034C034E0347F343F340034B4
:102090008A110A168C2B64005208503C8A110A16C9
:1020A000031D972864008A110A16601C73285C08B7
:1020B000073C8A110A16031C73288A110A16642029
:1020C000E1008A110A16732810308A005C086B3E02
:1020D00003188A0A8200FE34FE3486348634CE34F5
:1020E000FC347834003464008A110A16E01C942809
:1020F0005C08073C8A110A16031C94288A110A16E8
:102100008520E1008A110A16942810308A005C08A4
:102110008C3E03188A0A8200FF34FF3401340134F4
:1021200001340034003400348A110A168C2B640008
:102130005208513C8A110A16031DE32864008A11D3
:102140000A16601CBF285C08073C8A110A16031C8B
:10215000BF288A110A16B020E1008A110A16BF288A
:1021600010308A005C08B73E03188A0A8200F834EF
:10217000FC340E3406340E34FC34F834003464007D
:102180008A110A16E01CE0285C08073C8A110A162E
:10219000031CE0288A110A16D120E1008A110A16D0
:1021A000E02810308A005C08D83E03188A0A8200B2
:1021B0003F347F34E034C834F8347F34CF340034D3
:1021C0008A110A168C2B64005208523C8A110A1696
:1021D000031D2F2964008A110A16601C0B295C0854
:1021E000073C8A110A16031C0B298A110A16FC20C7
:1021F000E1008A110A160B2911308A005C08033E9F
:1022000003188A0A8200FE34FE3486348634CE34C3
:10221000FE347834003464008A110A16E01C2C293C
:102220005C08073C8A110A16031C2C298A110A161D
:102230001D21E1008A110A162C2911308A005C0840
:10224000243E03188A0A8200FF34FF340134073425
:102250001F34FC34F03400348A110A168C2B6400CD
:102260005208533C8A110A16031D7B2964008A1107
:102270000A16601C57295C08073C8A110A16031CC1
:1022800057298A110A164821E1008A110A1657298E
:1022900011308A005C084F3E03188A0A82007834A5
:1022A000FC34CE3486340E343C343834003464008C
:1022B0008A110A16E01C78295C08073C8A110A1664
:1022C000031C78298A110A166921E1008A110A166D
:1022D000782911308A005C08703E03188A0A82004F
:1022E00038347834E134C334E7347E343C34003459
:1022F0008A110A168C2B64005208543C8A110A1663
:10230000031DC72964008A110A16601CA3295C08F2
:10231000073C8A110A16031CA3298A110A16942164
:10232000E1008A110A16A32911308A005C089B3E3D
:1023300003188A0A820006340634FE34FE34FE3462
:1023400006340634003464008A110A16E01CC429DD
:102350005C08073C8A110A16031CC4298A110A1654
:10236000B521E1008A110A16C42911308A005C08DF
:10237000BC3E03188A0A820000340034FF34FF3464
:10238000FF340034003400348A110A168C2B6400A8
:102390005208553C8A110A16031D132A64008A113B
:1023A0000A16601CEF295C08073C8A110A16031CF8
:1023B000EF298A110A16E021E1008A110A16EF2995
:1023C00011308A005C08E73E03188A0A8200FE3456
:1023D000FE34003400340034FE34FE340034640033
:1023E0008A110A16E01C102A5C08073C8A110A169A
:1023F000031C102A8A110A160122E1008A110A160A
:10240000102A12308A005C08083E03188A0A8200EB
:102410003F347F34E034C034E0347F343F34003420
:102420008A110A168C2B64005208563C8A110A162F
:10243000031D5F2A64008A110A16601C3B2A5C088F
:10244000073C8A110A16031C3B2A8A110A162C2201
:10245000E1008A110A163B2A12308A005C08333EDA
:1024600003188A0A8200FE34FE340034003400343B
:10247000FE34FE34003464008A110A16E01C5C2A23
:102480005C08073C8A110A16031C5C2A8A110A168A
:102490004D22E1008A110A165C2A12308A005C087B
:1024A000543E03188A0A820007341F347C34E03417
:1024B0007C341F34073400348A110A168C2B6400D4
:1024C0005208573C8A110A16031DAB2A64008A1170
:1024D0000A16601C872A5C08073C8A110A16031C2E
:1024E000872A8A110A167822E1008A110A16872A99
:1024F00012308A005C087F3E03188A0A8200FE348C
:10250000FE34003400340034FE34FE340034640001
:102510008A110A16E01CA82A5C08073C8A110A16D0
:10252000031CA82A8A110A169922E1008A110A16A8
:10253000A82A12308A005C08A03E03188A0A82008A
:10254000FF347F3438341F3438347F34FF34003460
:102550008A110A168C2B64005208583C8A110A16FC
:10256000031DF72A64008A110A16601CD32A5C082E
:10257000073C8A110A16031CD32A8A110A16C422A0
:10258000E1008A110A16D32A12308A005C08CB3E79
:1025900003188A0A82000E343E34F0348034F0345A
:1025A0003E340E34003464008A110A16E01CF42A0A
:1025B0005C08073C8A110A16031CF42A8A110A16C1
:1025C000E522E1008A110A16F42A12308A005C081A
:1025D000EC3E03188A0A8200F034FC340F340334D2
:1025E0000F34FC34F03400348A110A168C2B64004A
:1025F0005208593C8A110A16031D432B64008A11A4
:102600000A16601C1F2B5C08073C8A110A16031C63
:102610001F2B8A110A161023E1008A110A161F2B9C
:1026200013308A005C08173E03188A0A82000E34B1
:102630003E34F034C034F0343E340E3400346400A0
:102640008A110A16E01C402B5C08073C8A110A1606
:10265000031C402B8A110A163123E1008A110A1645
:10266000402B13308A005C08383E03188A0A820027
:1026700000340034FF34FF34FF34003400340034BD
:102680008A110A168C2B640052085A3C8A110A16C9
:10269000031D8C2B64008A110A16601C6B2B5C08CE
:1026A000073C8A110A16031C6B2B8A110A165C233D
:1026B000E1008A110A166B2B13308A005C08633E16
:1026C00003188A0A8200063406340634C634F63407
:1026D0003E340E34003464008A110A16E01C8C2B40
:1026E0005C08073C8A110A16031C8C2B8A110A16F7
:1026F0007D23E1008A110A168C2B13308A005C08B6
:10270000843E03188A0A8200F034FC34CF34C33488
:10271000C034C034C03400340800EA017F30EB001C
:10272000EC010730ED008A01D221DD0164000830A0
:102730005D028A110A160318B22BDB016400803097
:102740005B028A110A160318AD2BE1018A01A6214A
:10275000DB0A8A110A16031D9E2BDD0A8A110A164E
:10276000031D962B0800EA010730EB00EC01ED0198
:102770003C30D300E8010F30DA00E9016A08D500E7
:102780006B08D4006808D100640051085A028A110D
:102790000A16031C202C19305107CE00CF01CF0D93
:1027A0004E0803178D0003138A010820D20060141D
:1027B0006C08E3006D08E2008A01EB21DC01640093
:1027C00008305C028A110A160318EF2B8A0163276E
:1027D0008A01A621DC0A8A110A16031DDF2B60106C
:1027E000E0146C0AE3006D0AE2008A01EB21083074
:1027F000D5070830D407DC01640008305C028A1178
:102800000A1603180C2C8A0163278A01A621DC0A08
:102810008A110A16031DFC2BE0100A308A011120D0
:10282000E90A6400690853028A110A16031D1B2C69
:102830008A110A16202CD10A8A110A16031DC42BEC
:102840001030E8070F306807DA000230EC076C0838
:10285000ED006400690853028A110A16031D342C26
:1028600008008A110A16372C8A110A16BE2B080096
:10287000EA017F30EB00EC01ED018A01D221DC019D
:10288000640080305C028A110A160318E22C5C088E
:102890007F3C8A110A16031CDB2C8A110A16542469
:1028A000E1008A110A16DB2C14308A005C085B3EBA
:1028B00003188A0A82001034103410341034103493
:1028C0001034903490349034903490349034903468
:1028D00090349034903490349034903490349034D8
:1028E00090349034903490349034903490349034C8
:1028F00090349034903490349034903490349034B8
:1029000010341034103410341034103410341034A7
:102910001034103410341034103410341034103497
:102920001034103420344034803400340034003407
:10293000003400340034E034103410341034E03407
:102940004034403440344034403480340034003427
:102950000034003400343834443447344434383498
:102960000034003438344434473444343834003488
:102970000034383444344734443438340034003478
:10298000383444344434443438341034103410343B
:102990001034103410341034103410341034103417
:1029A0001034103410341034103410341034103407
:1029B0001034103410348A01A621DC0A8A110A1658
:1029C000031D402CEA017F30EB000130EC000130A8
:1029D000ED008A01D221DC01640080305C028A11A2
:1029E0000A1603188E2D5C087F3C8A110A16031CF8
:1029F000872D8A110A160025E1008A110A16872DF3
:102A000015308A005C08073E03188A0A82001234D7
:102A1000123412342234C2340134003400343834D5
:102A20004434C43444343834003400343834443406
:102A3000C434443438340034003438344434C43476
:102A4000443438340034003438344434C4344434E6
:102A50003834003400340034013402348434F8341F
:102A60008034003400340034003400340E34113427
:102A7000113411340E34043404340434043408346E
:102A80001034213442348434883490349034903477
:102A90009134913491349034903490349034903413
:102AA00090349034913492349234923492349234FB
:102AB00092349234923492349234923492349234E6
:102AC00092349234923492349234923492349234D6
:102AD00092349234923492349234923492349234C6
:102AE0009234923492349234923412341234123436
:102AF00012341234123412341234123412341234A6
:102B000012341234123412341234123412348A0150
:102B1000A621DC0A8A110A16031DEC2CEA017F307B
:102B2000EB000230EC000230ED008A01D221DC0122
:102B3000640080305C028A110A1603183A2E5C0881
:102B40007F3C8A110A16031C332E8A110A16AC2503
:102B5000E1008A110A16332E15308A005C08B33E54
:102B600003188A0A8200003400340E341134113400
:102B700011340E3400340034003403340434083487
:102B800008340834083410342334C434083410347E
:102B9000E03400340034FF3400340034E0341034C6
:102BA0000834043403340034003400340034003476
:102BB000003407340834083408340734003400344F
:102BC0000034003400340034003400340034003465
:102BD0000034003400340034003400340034003455
:102BE0000034003400340034003400340034003445
:102BF0000034003400340034003400340034003435
:102C000000340034003470348834883488347034AC
:102C1000003400347034883488348834703400349C
:102C2000003470348834883488347034003400348C
:102C3000703488348834883470340034003400347C
:102C400000340134023404340834103410341034A5
:102C50003834443444344434383400340034003498
:102C60000034003400348A01A621DC0A8A110A16D5
:102C7000031D982DEA017F30EB000330EC00033098
:102C8000ED008A01D221DC01640080305C028A11EF
:102C90000A160318E62E5C087F3C8A110A16031CEC
:102CA000DF2E8A110A165826E1008A110A16DF2E35
:102CB00016308A005C085F3E03188A0A82001034CE
:102CC00010341034103410341034103410341034E4
:102CD000903490349034903490349034FE34FE34F8
:102CE00006340734E634E634E734E634E634E734D1
:102CF000E634E63407340634FE34FE34903490343F
:102D000090349034903490349034903490349034A3
:102D10009034903490349034903490349034103413
:102D2000103410341034103410347C347C347C343F
:102D30007C347C340034003400347C347C347C3487
:102D40007C347C34103410343834443444344434C7
:102D5000383400340034003400340034003400349B
:102D60000034FF34003400340034003400340034C4
:102D7000FF34003400340034003400340034FF34B5
:102D8000003400340034003400340034FF340034A4
:102D90000034003400343834443444344434383457
:102DA0001034103410341034103410341034103403
:102DB00010341034103410341034103410348A01AC
:102DC000A621DC0A8A110A16031D442EEA017F306F
:102DD000EB000430EC000430ED008A01D221DC016C
:102DE000640080305C028A110A160318922F5C0876
:102DF0007F3C8A110A16031C8B2F8A110A1604279E
:102E0000E1008A110A168B2F17308A005C080B3EEE
:102E100003188A0A82000834083408340834083455
:102E20000834843442342134103408340434843473
:102E300044342434FF34FF34803480349F349F344E
:102E40009F349F349F349F349F349F348034803428
:102E5000FF34FF34243424342434243424342434FC
:102E6000243424342434443484340434043408347E
:102E700010342034403481340234043408340834AB
:102E800008343E343E343E343E343E340034003464
:102E900000343E343E343E343E343E34083408344C
:102EA0001C342234223422341C34003400340034E4
:102EB00000340034003400340034FF340034003473
:102EC0000034003400340034FF3400340034003463
:102ED000003400340034FF34003400340034003453
:102EE00000340034FF3400340034003400341C3427
:102EF0002234223422341C34083408340834083490
:102F000008340834083408340834083408340834E1
:102F10000834083408348A01A621DC0A8A110A160A
:102F2000031DF02EEA017F30EB000530EC00053088
:102F3000ED008A01D221DC01640080305C028A1538
:102F40000A1603183E285C087F3C8A150A16031CE3
:102F500037288A110A16B027E1008A150A16372881
:102F600017308A005C08B73E03188A0A82000434CE
:102F700004340434043402340134003400340034A2
:102F80000034783478347F34783478340134013440
:102F900001348134C134C134E134D134C934C7344B
:102FA000C134C134FF34C134C134813400340034FD
:102FB0000034003400340034003400340034003471
:102FC00000340134023404340834103420344034E2
:102FD000813402340434043404349F349F349F34E5
:102FE0009F349F340034003400349F349F349F3426
:102FF0009F349F34043404340E349134913491342A
:103000000E34003400340034003400340034003412
:103010000034FF3400340034003400340034003411
:10302000FF34003400340034003400340034FF3402
:10303000003400340034003400340034FF340034F1
:103040000034003400340E349134913491340E3411
:1030500004340434043404340434043404340434B0
:1030600004340434043404340434043404348A014D
:10307000A621DC0A8A110A16031D9C2FEA017F3063
:10308000EB000630EC000630ED008A01D221DC01B5
:10309000640080305C028A150A160318EA285C086E
:1030A0007F3C8A150A16031CE3288A150A165C2041
:1030B000E1008A150A16E32818308A005C08633E8E
:1030C00003188A0A820002340234023402340434BF
:1030D000083408340834083408343C343C343C3474
:1030E0003C343C3400340034003407340F340F34A3
:1030F0000F340F340F340F340F340F340F340F34B8
:103100000F34073400340034003400340034003409
:10311000003400340034003400340034003400340F
:1031200000340034003400340034013402340234FA
:1031300002340F340F341F342F344F348034803432
:1031400080348F348F348F348F348F348234823490
:1031500087348834883488348734803480348034A9
:10316000803480344034203410340F340034003440
:10317000003400341C342234233422341C34003410
:1031800000341C342234233422341C340034003400
:103190001C342234233422341C34003400340734E9
:1031A0000834083408340734023402340234023458
:1031B000023402340234023402340234023402345F
:1031C0000234023402348A01A621DC0A8A150A1666
:1031D000031D4828EA017F30EB000730EC00073080
:1031E000ED008A01D221DC01640080305C028A1586
:1031F0000A16031896295C087F3C8A150A16031CD8
:103200008F298A150A160821E1008A150A168F29C6
:1032100019308A005C080F3E03188A0A82000034C5
:1032200000340034003400340034003400340034FE
:1032300000340034003400340034003400340034EE
:1032400000340034003400340034003400340034DE
:1032500000340034003400340034003400340034CE
:1032600000340034003400347F344934493441346C
:1032700000347F3440344034403400347F344934A7
:103280004934413400343E34413441342234003432
:10329000013401347F34013400347F34093419346B
:1032A000663400343E34413441343E3400347F349B
:1032B000023404347F340034413441347F344134A7
:1032C00000343E344134413422340034263449340D
:1032D00049343234003400340034003400340034D3
:1032E000003400340034003400340034003400343E
:1032F000003400340034003400340034003400342E
:10330000003400340034003400340034003400341D
:1033100000340034003400340034003400348A01B6
:10332000A621DC0A8A150A16031DF428080020309D
:10333000840060308A010220A030840050308A016D
:1033400002201030840060308A0101209030840017
:1033500060308A010120E3010730E7000730E20016
:103360001430E5007830D0000130A300F4308A0139
:1033700012208A0156208A110A168D230130A300DB
:10338000F4308A0112208A110A16B3230B30A300ED
:10339000B8308A0112208A110A168D230A308A0158
:1033A00011208A0104220330A300E8308A01122090
:1033B000DF01640006305F028A150A160318E72948
:1033C0008A016A21DF0A8A150A16031DD9290330EA
:1033D000A300E8308A0112208A110A16382403302B
:1033E000A300E8308A0112208A0139210130A300AC
:1033F000F4308A0112208A0154210130A300F430F4
:103400008A0112208A01F6208A01B6200830A30022
:10341000CA308A0112208A01B0200130A300F430A2
:103420008A0112208A01D4208A01B6200830A30024
:10343000CA308A0112208A01B0200130A300F43082
:103440008A0112208A0118218A01B6201130A300B6
:1034500094308A0112208A01B0200130A300F43098
:103460008A011220DF01640006305F028A150A1605
:1034700003184D2A8A01C2200130A300F4308A01CA
:1034800012208A01BC200130A300F4308A011220EE
:10349000DF0A8A150A16031D332A0130A300F4300F
:1034A0008A0112208A150A16BB2963008A150A169A
:0234B000552A9B
:02400E00E423A9
:02401000FF3E71
:0E42320020004F004C004500440020004400D6
:104240004900530050004C0041005900200020005C
:1042500020002000530053004400310033003000A0
:104260003600200020002000200020002000200038
:10427000200020004600490052004D005700410038
:1042800052004500200020002000200020002000D7
:1042900020002000560045005200530049004F0006
:0A42A0004E00200035002E00300013
:00000001FF
